:100000000C943B030C9473030C9473030C947303D0
:100010000C9473030C9473030C9473030C94730388
:100020000C9473030C9473030C94012C0C94BD2B4F
:100030000C94FE2C0C9473030C9473030C947303B4
:100040000C9473030C9473030C9473030C94730358
:100050000C9473030C94DA2C0C9473030C947303B8
:100060000C9473030C9473030C9473030C94730338
:100070000C9473030C9473030C9473030C94730328
:100080000C9473030C9473030C9473030C94730318
:100090000C9473030C9473030C9473030C94730308
:1000A0000C9473030C9473030C94730305010902FD
:1000B000A10185020901A100050919012905150001
:1000C00025019505750181029501750381010501E1
:1000D000093009311581257F950275088106093897
:1000E0001581257F950175088106050C0A380215D2
:1000F00081257F950175088106C0C005010980A191
:1001000001850319012AB700150126B7009501756D
:10011000108100C0050C0901A101850419012AA064
:1001200002150126A002950175108100C005010984
:1001300006A1018506050719E029E71500250195A7
:1001400008750181020507190029EF1500250195A1
:10015000F0750181020508190129059505750191C0
:1001600002950175039101C00660FF0961A10109B3
:1001700062150026FF0095207508810209631500AD
:1001800026FF00952075089102C005010906A1010E
:10019000050719E029E71500250195087501810279
:1001A0009501750881010507190029FF150026FF33
:1001B0000095067508810005081901290595057542
:1001C000019102950175039101C0FD377A585A00DB
:1001D0000004E6D6B4460200210116000000742F88
:1001E000E5A3E0043C01805D003D888986D3DC0AFC
:1001F000E842C324925842588FD8E75CA0D2616E7F
:1002000026E888019A676C7887BC8D3709EA1EB4A6
:100210008DA53C798586633FDCC445A3F020FF2093
:10022000B3687235CC77FE57EDF65C8915706013B4
:10023000D8724A27AB6D7557831A7CCAC08CE4CD3F
:100240006F61366896FDBD7561118C137D0F5DDFA2
:10025000372DD32EC4130955B011A17304D1D2097F
:10026000D98775CE86B6F22EAC4E3C9515842A15EC
:10027000F993AD9F04B72AA27538ED4586C96ACEB9
:10028000AF8DA3D3DA2FBEEDE687D129C67F111536
:10029000A4E7BD5C76B67D7530D97919C97FB86D94
:1002A0004BA3D9AA5669BEDE204D48CE0980A2A430
:1002B000B2A9DD381DF9DA8F5CDDC1055B1B27AF04
:1002C0000E7911F3E25E3E642590D45C9B312F1DC4
:1002D000D7B7ABA8EC653392AC4826B60932988EF6
:1002E000F1DC45D3774E73FB8E2FE9102E019294EB
:1002F0003CCA6FFCAB8A95C7E7824834C4DEA9FFCD
:1003000027A271338C8D08AA7C71D5A18B5180C72F
:100310007A7BEF48D89C316B33C9674B0AEC1F5787
:10032000C895C2BD15C37E0AFB05E3F4E33E361A49
:10033000F67B0CB2E79D11B92399E669441A70F86F
:10034000ADE7DBD85D8B949C778102856E815A2165
:10035000CCB029A16191D25632C50BF6286B32FA86
:10036000A48D9005CA2C87375700B920C7EDB68FEA
:10037000766B00019C03BD080000CABF5A0FB1C4D0
:1003800067FB020000000004595A00000000000052
:10039000000000000000000000000000000000005D
:1003A000000000000000000000000000000000004D
:1003B000000000000000000000000000000000003D
:1003C000000000000000000000000000000000002D
:1003D000000000000000000000000000000000001D
:1003E000000000000000000000000000000000000D
:1003F00000000000000000000000000000000000FD
:1004000000000000000000000000010001002104C5
:10041000840EB70E0000020002001D04840EB70E09
:100420000000030001002204840EB70E0000040047
:1004300002000704840EB70E140705000100230410
:10044000840EB70E0000060002000904840EB70EE9
:100450000000070002001F04840EB70E0000080011
:1004600001002404840EB70E0000090002000B04F2
:10047000840EB70EEF060A0002000D04840EB70EBC
:10048000EF060B0002000F04840EB70EEF060C00FF
:1004900002001104840EB70EEF060D0002001304D3
:1004A000840EB70EEF060E0002001504840EB70E80
:1004B000EF060F0002001704840EB70EEF061000BF
:1004C00002001904840EB70EEF06110002001B048F
:1004D000840EB70EEF06120002002504840EB70E3C
:1004E0000000130002002704840EB70E0000140061
:1004F00001002904840EB70E000015000000000062
:1005000075069E16000009025B00030100A0FA09AF
:100510000400000103010100092111010001224032
:10052000000705810308000109040100020300001F
:100530000009211101000122220007058203200089
:100540000107050303200001090402000103000064
:100550000009211101000122BC00070584032000CD
:100560000112010002000000086305010000010102
:100570000203011C037600690061006C003A00660A
:100580000036003400630032006200330063000074
:1005900000140374006800650020005000450054FA
:1005A000004500520000001803430061006C007613
:1005B0000069006E00230030003500360033000073
:1005C0000004030904000000000000000000000017
:1005D000000000000000000000000000000000001B
:1005E0000000000000000000007E0F00D4FFFFFFAD
:1005F000C70000007800000000000000002A2B283F
:1006000000000000000000000000000000000000EA
:1006100029000000002C1E34202122243426272506
:100620002E362D3738271E1F20212223242526333E
:1006300033362E37381F0405060708090A0B0C0D40
:100640000E0F101112131415161718191A1B1C1D52
:100650002F3130232D350405060708090A0B0C0D30
:100660000E0F101112131415161718191A1B1C1D32
:100670002F3130354C0011241FBECFEFDAE0DEBF42
:10068000CDBF04B603FE18C08091300590913105AE
:10069000A0913205B09133058730904BA740B04B05
:1006A00059F41092300510923105109232051092D3
:1006B0003305E0E0F8E3099511E0A0E0B1E0E0E106
:1006C000FFE602C005900D92A838B107D9F725E0E2
:1006D000A8E8B1E001C01D92A033B207E1F70E9483
:1006E000252D0C945B370C940000E8EDF0E0808140
:1006F0008E7F80831092E2001092DA001092E10067
:10070000A0EEB0E08C9181608C9380818F778083A4
:1007100019BCA7EDB0E08C918E7F8C9380818F7E89
:1007200080831092FF0408952091E4003091E50049
:1007300095E6A9012091EC00822F817020FF06C070
:100740008091E80080FF06C080E008952091E800D5
:1007500022FD1AC080912D05882389F0853089F00B
:100760008091EB0085FD0FC02091E4003091E50001
:1007700042175307F9F29150E1F684E0089582E0C0
:10078000089583E0089581E00895EF92FF920F931A
:100790001F93CF937C018B010E949403C82F81117A
:1007A00017C08091E80085FD0BC08091E8008E772E
:1007B0008093E8000E949403882399F3C82F08C00F
:1007C000F70181917F018093F1000150110949F7F0
:1007D0008C2FCF911F910F91FF90EF900895CF93A1
:1007E000FC0180912D05843001F5C091E900CF70A6
:1007F0002091EC00922F917020FD90E8C92B82E0AF
:100800008093E9008091E80080FF0CC050E040E058
:1008100060E270E0CF010E94C5038091E8008E770E
:100820008093E800CF70C093E900CF910895809144
:10083000250587FF13C08091E80082FF06C08091E4
:10084000E8008B778093E80004C080912D0581112A
:10085000F2CF089580912D058823D9F38091E80087
:1008600080FFF8CF8091E8008E77ECCF982F90939F
:10087000E900242F762F50E0891731F07091EC00B9
:100880002091ED005091F00021FD07C09F5F97304F
:1008900071F78093E90081E008953091EB003E7F8D
:1008A0003093EB003091ED003D7F3093ED003091BF
:1008B000EB0031603093EB007093EC002093ED007F
:1008C0005093F0002091EE0027FDE0CF80E00895E6
:1008D000B0E0A0E0EEE6F4E00C94AE36C8EDD0E077
:1008E00088818F7E8883E7EDF0E08081816080835E
:1008F00084E082BF81E08093FF0488818E7F8883BB
:1009000002EE10E0F80110821092DA0081EEC82E9B
:10091000D12CF601108288818F7788838881806846
:10092000888388818F7D888319BC10922D05109251
:100930002405109223051092220590EEE92EF12C49
:10094000F70180818B7F808388818160888342E08A
:1009500060E080E00E943604F60180818E7F808313
:10096000F801808181608083808188608083F701C5
:1009700080818E7F8083888180618883CDB7DEB758
:10098000E8E00C94CA36FC0180912B0590912C056F
:1009900086179707A0F06115710529F49091E8007A
:1009A0009E779093E80090E06115710551F49111E4
:1009B00008C08091E80082FF34C080E00895BC0147
:1009C000F2CF80912D058823C1F18530C1F180914E
:1009D000E80083FD30C08091E80082FDEACF80917D
:1009E000E80080FFE1CF8091F3002091F200382FE2
:1009F0006115710519F02830310558F091E0283063
:100A0000310509F090E02091E8002E772093E8006E
:100A1000CBCF81918093F100615071092F5F3F4FDF
:100A2000E7CF80912D05882341F0853041F08091FA
:100A3000E80083FFBECF81E0089582E0089583E05F
:100A4000089508958091010508959C014FB7F89489
:100A50008091F6049091F704A091F804B091F90404
:100A60004FBF821B930B08952FB7F8946091F60443
:100A70007091F7048091F8049091F9042FBF0895C4
:100A80002FB7F8948091F6049091F704A091F804A0
:100A9000B091F9042FBF0895209119012223C1F0CC
:100AA0002091FA0427FF14C0E62FE695E695E69517
:100AB000EE31F8F4E80FF92FF11D677021E030E016
:100AC00001C0220F6A95EAF78281822B8283089502
:100AD000FC0132962FEF30E04191641751F02F3F27
:100AE00019F4411101C0232F3F5F3630A9F72F3F82
:100AF00009F40895820F911D27FD9A95FC016283E8
:100B000008952091F3043091F4042817390771F007
:100B10009093F4048093F304E091F104F091F204D3
:100B2000309721F00084F185E02D099508952091FA
:100B3000EF043091F0042817390771F09093F00416
:100B40008093EF04E091F104F091F204309721F0EA
:100B50000680F781E02D09950895E091F104F09168
:100B6000F204309729F00190F081E02D0995089565
:100B700080E00895CF93DF93EC014091DF04509122
:100B8000E0046091E1047091E2042FB7F894809141
:100B9000F6049091F704A091F804B091F9042FBFE6
:100BA000841B950BA60BB70B843F9140A105B105A3
:100BB00018F58091DF049091E004A091E104B091D8
:100BC000E2048093DB049093DC04A093DD04B093F3
:100BD000DE0484EF91E0A0E0B0E08093D70490932E
:100BE000D804A093D904B093DA04D093E704C09357
:100BF000E604DF91CF9108950E9434056093DB04F1
:100C00007093DC048093DD049093DE0482E390E033
:100C1000A0E0B0E0E2CFFC018481862351F4928110
:100C20009923B9F06923808583FF05C081E06111B4
:100C30000FC080E00895892F8F7092959F70982B38
:100C4000862F8F7062956F70682B81E09613F1CFBD
:100C5000089581E0FDCF452B39F0682381E06F3F97
:100C600009F080E08170089581E0FCCFDC016091A3
:100C7000D3048091D404962F891301C00895292F9D
:100C800030E0F901EE0FFF1FE553FB4F408151812A
:100C90004A175B07A1F487E08A9FA0018B9F500D44
:100CA00011244D565B4F81E0FA0184839613E6CF01
:100CB0002F5F3F4F237033272093D30408952F5F76
:100CC0003F4F922F9370D8CF1092300410922F0480
:100CD000E3E9F4E08581811102C01482168237961F
:100CE00084E0EB3CF807B1F70895B0E0A0E0EBE753
:100CF000F6E00C94AC368FEF9FEF4430510508F4CA
:100D000069C04091FA0441FB882780F990E0880F80
:100D1000991F42FB002700F910E0000F111F000F80
:100D2000111F802B912B40FBCC24C0F8D12C8C2997
:100D30009D2943FB222720F9C22FE0E0DE2F53E05C
:100D4000CC0FDD1F5A95E1F78C2B9D2B44FBAA2776
:100D5000A0F9B0E0E4E0AA0FBB1FEA95E1F78A2B07
:100D60009B2B45FBEE27E0F9F0E0A5E0EE0FFF1F1F
:100D7000AA95E1F78E2B9F2B46FB222720F930E026
:100D8000B6E0220F331FBA95E1F7822B932B47FB76
:100D9000222720F930E03695322F222737952795E4
:100DA000822B932B2091FB04322F3170F32EE82EEF
:100DB000F92A26952170B22EBB0CA82EBF28C5019A
:100DC000BB0CAA0BBB0BFB0180839183A283B38373
:100DD00090E080E0CDB7DEB7EAE00C94C836E7E0FB
:100DE000F4E0848195812AE030E0B9010E946F36F9
:100DF0006093140186818093130182858093120190
:100E000084858093110186859785B9010E946F368C
:100E100060931001808980930F01828980930E0175
:100E2000848980930D0108958091070490910804AE
:100E300090931601809315010895E5E9F2E090E0A2
:100E400080E062E27BE249E45BE227E93AE2778311
:100E500066835187408733872287958784870196E9
:100E60003E968830910599F7089581152CE59207F3
:100E700041F42091E0033091E103232B11F490E041
:100E800080E008950E9440059C0190917F0280912E
:100E90008002982B21F030937C0220937B0290916A
:100EA000810280918202982B21F030937A02209364
:100EB0007902E091F104F091F204309749F082E078
:100EC00080937D020480F581E02D8DE792E0099505
:100ED000089590917F02803F59F48091800287FFAE
:100EE0000DC01092800291110BC01092770208C0C1
:100EF000813F81F48091800218169CF3992381F040
:100F00008091810290918202892B09F064C0109235
:100F100076020895823F49F497FFF0CF10927F0246
:100F2000809180028111ECCFE0CF833F19F4191634
:100F3000ACF3E4CF20918102893F29F41216F4F634
:100F400010928102DBCF8A3F19F427FFD7CFF8CF69
:100F5000209182028B3F29F427FFD0CF109282028A
:100F6000CDCF8C3F19F41216CCF3C8CF843F31F4A7
:100F700080917E028E7F80937E02C0CF853F21F4D8
:100F800080917E028D7FF7CF863F21F480917E0293
:100F90008B7FF1CF873F21F480917E02877FEBCF5B
:100FA000883F21F480917E028F7EE5CF8D3F31F422
:100FB000809178028E7F80937802A0CF8E3F21F4BB
:100FC000809178028D7FF7CF8F3F09F097CF809186
:100FD00078028B7FF0CF08958091780280FF0CC05B
:100FE00060910E0170E0759567957595679561152F
:100FF000710549F1862F089581FF06C060910E01A9
:1010000070E075956795F3CF60910E0182FD0BC07E
:10101000909176029923A1F060910D0180910E01CB
:10102000961738F0682F70E06038710500F38FE78D
:101030000895899FC001112470E00E948336F4CF87
:1010400061E070E0D7CF81E00895809178026091EF
:101050000F047091100480FF16C020911201269F8A
:10106000C001279F900D1124BC0176956795769558
:1010700067956038710508F043C06115710509F482
:1010800041C0862F089581FF0BC020911201269F39
:10109000C001279F900D1124BC0176956795E9CF7B
:1010A00082FF09C0809112019B01829FB001839F42
:1010B000700D1124DECF209177022223D1F290917E
:1010C000110180911201482F50E0291748F0CB01FF
:1010D000849FB001859F700D949F700D1124C9CF1E
:1010E000289F90011124269FA001279F500D369F15
:1010F000500D1124692F70E0CA010E946F36B9CFDC
:101100008FE7089581E00895803F31F40E9425081B
:101110008195809380020895813F19F40E942508EB
:10112000F8CF823F31F40E942508819580937F0299
:101130000895833F19F40E942508F8CF893F29F4C8
:101140000E94EC078093810208958A3F21F40E9457
:10115000EC078195F7CF8B3F31F40E94EC07819526
:101160008093820208958C3F19F40E94EC07F8CF17
:10117000843F31F480917E02816080937E020895E5
:10118000853F21F480917E028260F7CF863F21F473
:1011900080917E028460F1CF873F21F480917E02AE
:1011A0008860EBCF883F21F480917E028061E5CF9B
:1011B0008D3F31F4809178028160809378020895A8
:1011C0008E3F21F4809178028260F7CF8F3FB9F78C
:1011D000809178028460F1CF80E00895F894E82F40
:1011E000E295EF70F0E031A1282F2F7081E090E0C0
:1011F00001C0880F2A95EAF7982F9095932391A321
:1012000092A1892B82A3789408959091FA0492FF79
:1012100006C0282F28712830F9F4877F846093FF57
:1012200006C0282F28712831F1F4877E846120912F
:10123000FB0420FF06C0382F38713830D9F4877F7F
:10124000816021FF06C0282F28712831D1F4877EC4
:10125000816194FD877E0895282F24712430F9F64A
:101260008B7F8860DCCF282F2471243101F78B7E9F
:101270008861DDCF382F3171313019F78E7F88606A
:10128000E0CF282F2171213121F78E7E8861E1CFB7
:10129000CF93DF93EC0182389105B1F108F040C0A3
:1012A0008133910509F49DC048F58932910509F40F
:1012B0008DC08A9709F49CC0C11521E5D20708F0BA
:1012C000C3C0C11530E5D30708F01EC1C83ED10523
:1012D00008F0A3C0C13ED10588F5C83AD10508F091
:1012E0008EC0C53AD10508F007C1C130D10531F132
:1012F000209721F1C430D10508F545C0853391050B
:1013000009F45FC0C997C1F68091FA04837009F0AF
:1013100044C18091FB0483FF11C0C9E2D0E00EC03C
:10132000833E910599F170F4803E910501F1823E72
:10133000910511F68091FA0482FD21C0CE01DF9162
:10134000CF910895863E910561F1873E910571F137
:10135000843E910509F0B0CF8091FB0481FFEECF70
:101360008091FA04C7EED0E084FD0DC0E7CF8091F4
:10137000FA0480FD33C09091FB0490FFDFCFC3EEF1
:10138000D0E084FFDBCFD0E0C0E0D8CF8091FA047A
:1013900082FD00C19091FB0490FDFFC084FFCECF81
:1013A000F2CF8091FA0483FDDDCFC8CF8091FA049B
:1013B00083FDF6C09091FB0491FFF0CFC4EED0E026
:1013C000BDCF8091FA0485FFB9CFA7CF8091FA04F1
:1013D00085FDE9C08091FB0483FFB0CFC9E3D0E075
:1013E000ADCF8091FA0486FFA9CFCAE2D0E0A6CFA4
:1013F0008091FA0486FFA2CFC1E3D0E09FCFCF3B1C
:10140000D10508F6C85AD0E0CC0FDD1FCB5DDE4F0A
:101410000990D881C02DD46491CFC11540E2D40782
:1014200058F4C11581E0D80708F088CFC03FD10536
:1014300008F4A9CFD06582CFC11520E4D20708F403
:10144000A2CFDF70D06A7ACFC11535E5D30718F582
:10145000C11544E5D40708F085C0C11583E5D80758
:1014600008F06CC0C11522E5D20708F462C0CE01B5
:101470008370992721E030E002C0220F331F8A9544
:10148000E2F7C695C69580E2C89FE0011124C22B01
:10149000D32BDC6853CFC11539E5D307A8F4C115A8
:1014A00048E5D40708F063C0C11586E5D80708F001
:1014B0006ACF8C2F0E940509C82FD0E0DC2FCC27E3
:1014C000CC27DF71D0623ACFC1152AE5D20708F4E4
:1014D00053C0CE0190568115904208F054CF8D2F05
:1014E0008F710E94050990E0982F882788279F71A7
:1014F0009C012C2BE901E6CFC55AD0E0CE5DDE4F32
:10150000C881D0E0D0641ACF2C2F26952695237061
:1015100040E2249F900111248C2F8370C1E0D0E021
:1015200002C0CC0FDD1F8A95E2F7C22BD32BDD68FA
:1015300005CFDC2FCC27C16FD06A00CFCE018370DE
:10154000992721E030E002C0220F331F8A95E2F78D
:10155000C695C69540E2C49FE0011124C22BD32B4F
:10156000DA68ECCEDC2FCC27C46FD06AE7CEDC2F54
:10157000CC27C06FD06AE2CE8C2F8F700E940509F5
:1015800034E0D695C7953A95E1F7CF709C2FEC01E2
:10159000D069D4CEC2EED0E0D1CEC0EED0E0CECE77
:1015A000C6EED0E0CBCEC5E3D0E0C8CE80913A0203
:1015B000882331F010923A021092390210923802C8
:1015C0000895CF93C82F8091FB0482FF0CC08091B7
:1015D0003A028C1741F00E944005909339028093A3
:1015E0003802C0933A02CF910895809590912F05CB
:1015F000982390932F05089580959091E603982362
:101600009093E60308959091E603892B8093E60377
:101610000895109217021092160210921502089562
:101620008091090490910A04892B89F00E94400559
:101630002091380230913902AC01421B530B81E0FA
:101640002091090430910A044217530708F480E0FE
:1016500081700895909119019923D1F09091FA0425
:1016600097FF16C0E82FE695E695E695EE31E0F493
:10167000F0E0E657FE4F282F277081E090E001C090
:10168000880F2A95EAF780959281892382830895AD
:10169000ECE8F1E09191891303C0DF0111971C92EE
:1016A00091E0E239F907B1F7089520911402909181
:1016B000D301291302C080E0089530E0F90153E01E
:1016C000EE0FFF1F5A95E1F7EC52FE4F5181561372
:1016D00006C05081581303C05281541304C02F5FB9
:1016E0003F4F2770E6CF81E00895809114029091DA
:1016F000D301981301C008958F5F8770FACFA82F88
:10170000A77023E0969587952A95E1F7FC01EE0FE7
:10171000FF1FE80FF91FE60FF71F50E040E080E0E1
:10172000219130E00A2E02C0369527950A94E2F7FF
:1017300021703327042E01C0220F0A94EAF7822B6E
:101740004F5F5F4F4330510559F70895903FC9F0FF
:10175000953080F48C30A8F4282F30E063EB71E0F2
:10176000A901ECE09E9F400D511D1124CA010E9469
:101770007F0B08959C5F923020F460EB71E090E065
:10178000F6CF80E00895262F277091E001C0990FD1
:101790002A95EAF723E0769567952A95E1F7FB010C
:1017A000EE0FFF1FE60FF71FE40FF51F50E040E0BC
:1017B000682F70E08191DF0111979B01042E02C018
:1017C000369527950A94E2F7217021952827292339
:1017D00028272C934F5F5F4F4330510559F70895E9
:1017E000282F862F903F79F0953070F42C3058F4E4
:1017F000622F70E02CE0929F600D711D112443EB6D
:1018000051E00E94C30B08959C5F9230E0F7622F75
:1018100070E040EB51E0F5CF92959F70963091F0DB
:1018200058F4925F9F70923058F4803F19F030F472
:10183000883E30F481E008959A5FF4CF843FD1F37D
:1018400080E00895883EB0F3813FD1F7F3CF9C014B
:101850003A9521153F4150F5FC01EE27F170BC018E
:1018600066277270AC01442754709C01222738709F
:1018700094FF0EC080E1EF2B09F480E0672B09F0A4
:101880008062452B09F08064232B89F080680895DD
:1018900081E0EF2B09F480E0672B09F08260452B93
:1018A00009F08460232B19F08860089580E0089582
:1018B0008093FC047093FE046093FD0480912D05D9
:1018C0008430F9F48093E9008FEF9091E800815023
:1018D00095FD06C095ED9A95F1F700008111F5CFC1
:1018E0008091E80085FF0DC050E040E063E070E0CB
:1018F0008CEF94E00E94C5038091E8008E7780937E
:10190000E8000895BC0184E00E94580C0895BC01D1
:1019100083E00E94580C08959C0184E08093E900C4
:101920009FEF8091E800915085FD06C085ED8A9576
:10193000F1F700009111F5CF8091E80085FF0CC010
:1019400050E040E066E070E0C9010E94C50380916C
:10195000E8008E778093E8000895CF93DF93EC0141
:10196000809119018823B1F18091FA0487FF32C078
:1019700060E284E08093E9008FEF9091E80081506D
:1019800095FD06C095ED9A95F1F700008111F5CF10
:101990008091E80085FF1BC08091190170E050E044
:1019A00040E0811104C050E040E068E070E0CE010A
:1019B0000E94C5038091E8008E778093E80080E262
:1019C000FE01A2E0B5E001900D928A95E1F7DF916A
:1019D000CF91089568E081E0CDCF81E08093E00071
:1019E00080E28093D8001092C9008FE19EE40197B5
:1019F000F1F700C0000087E090EBDC018093300538
:101A000090933105A0933205B093330588E19CE0B3
:101A10000FB6F894A895809360000FBE9093600075
:101A2000FFCF019708F40895EFE9FFE03197F1F750
:101A300000C00000F6CF0F931F93CF93DF9307E012
:101A400014E0C7E2D2E0CE010E941137F801819381
:101A50008F012196CB34F2E0DF07A9F7C4E1D4E08F
:101A6000FE0185919491009711F0FC0109952C9647
:101A7000F5E0C031DF07A1F7DF91CF911F910F9102
:101A80000895FF920F931F93CF93DF93F42E84302A
:101A900070F5623060F528E0829F8001112434E007
:101AA000639FB0011124060F171F095F1D4F82E0CD
:101AB00090E0442311F090E080E0800F911F0E949D
:101AC0001137C82FD0E0DC2FCC2783E090E0FF2037
:101AD00011F081E090E0800F911F0E9411379E016C
:101AE000282BC901CDB7DEB7E5E00C94CD3690E0E8
:101AF00080E0F8CF0F931F93CF93DF93843030F5BE
:101B0000653020F54C3010F5C42FD0E0CC0FDD1F30
:101B100028E1629FC00DD11D112438E7839FC00DBD
:101B2000D11D1124CE0187960E941137082F10E095
:101B3000102F0027CE0188960E9411379801282B7C
:101B4000C901DF91CF911F910F91089590E080E03E
:101B5000F8CF2091E4033091E503232BC9F4703FC3
:101B600039F4603FA9F48091E2039091E303089572
:101B7000843070F4753038F46C3050F4462F672F91
:101B80000E947A0D08957D3F31F441E0623040F0CB
:101B900090E080E008957C3FD9F76230C8F740E0DC
:101BA0000E94410D0895CF92DF92FF920F931F93F1
:101BB000CF93DF936C0100912E0580913B02082B9F
:101BC000C7E0D0E010E0FC2EC8010C2E02C09595B5
:101BD00087950A94E2F780FD0CC02197A0F7F12CBD
:101BE0008F2DDF91CF911F910F91FF90DF90CF90BC
:101BF0000895B6018C2F0E94A90D0E9448090197F3
:101C000061F3EECFCF93DF93EC010E94D30DBE01C1
:101C10000E94A90D0E944809DF91CF910895CF93AA
:101C2000DF93EC014B815C81698188810E942B06E6
:101C3000811110C08E819F81009739F00E94480960
:101C40000E940C0CDF91CF910895888199810E94A8
:101C5000020EF6CF80E0F6CFA5E0B0E0E2E3FEE0D2
:101C60000C94B33649835A8389819A81662399F00B
:101C7000222389F00E94D30D182F682F89819A8121
:101C80000E94F00B69817A81812F0E94A90D25960F
:101C9000E3E00C94CF360E94A60B182FF3CFFC0183
:101CA000262F86819781009739F440815181628186
:101CB000738184810E942C0E089583E290E00E943B
:101CC0001137843489F484E290E00E94113782361F
:101CD00059F485E290E00E94113791E0823C09F0CE
:101CE00090E0892F8170089580E0FCCFCF9384E04D
:101CF00090E00E941137C82F82E290E00E941137D5
:101D0000982F8C2FCF910895DB01FC0132962591FD
:101D100034914217530758F0FC0134966591749141
:101D2000A901CD010E94F13690E080E008958FEF87
:101D30009FEF08950F931F93CF93DF9307E014E075
:101D4000C7E2D2E0CE010E941137F80161918F0104
:101D5000681719F0CE010E941F372196CB34F2E0AC
:101D6000DF0781F7DF91CF911F910F910895DA017D
:101D70009C012E5F3F4FF90145915491F901259146
:101D80003491A217B30758F0FC01349685919491D1
:101D90000E94F1360E949A0E90E080E008958FEF45
:101DA0009FEF0895CF93DF93CBE3D3E060E0CE01C4
:101DB0000E941F372196C11584E0D807B9F7DF913B
:101DC000CF9108950F931F93CF93DF93142F022F7A
:101DD000843020F5623010F598E0899FE0011124ED
:101DE00084E0689FB0011124C60FD71FC95FDD4F83
:101DF00082E090E0442311F090E080E0632F8C0FAC
:101E00009D1F0E941F3783E090E0112311F081E0B5
:101E100090E0602F8C0F9D1F0E941F37DF91CF91A4
:101E20001F910F9108951F93CF93DF93122F84304A
:101E3000E0F46530D0F44C30C0F4C42FD0E0CC0FC7
:101E4000DD1F98E1699FC00DD11D112498E7899F7E
:101E5000C00DD11D1124632FCE0187960E941F371C
:101E6000612FCE0188960E941F37DF91CF911F917D
:101E70000895CF93C82F6FEF811164E483E290E05F
:101E80000E941F376FEFC11162E684E290E00E946A
:101E90001F376FEFC11162EC85E290E00E941F379F
:101EA000CF910895CF93C92F682F84E090E00E94CE
:101EB0001F376C2F82E290E00E941F37CF91089568
:101EC0009B01883070F49AE0899FB0011124655B12
:101ED0007D4F4AE050E0C9010E94013790E080E068
:101EE00008958FEF9FEF0895AAE0B0E0EAE7FFE0E2
:101EF0000C94B4369C0137552F3F310509F068F436
:101F0000BE016F5F7F4F0E94600F892B31F489857E
:101F10009A852A96E2E00C94D03680911F04909125
:101F20002004F7CFAAE0B0E0E8E9FFE00C94AA367D
:101F300008E613E086E5C82E83E0D82E9BEEE92E56
:101F400092E0F92E27E0922E35E5A32E33E0B32E52
:101F500088248394D6010D931D936D014AE050E0CF
:101F6000B701CE0101960E940137F8013896DF01D2
:101F7000892D1D928A95E9F789819A81D801119658
:101F80009C938E938F8112968C9312978D811396CA
:101F90008C931397888514968C931497898515963E
:101FA0008C9315978B819C8117969C938E93169793
:101FB00018961C9218978A8587FF3CC01E961C9223
:101FC0001E921D9780FF03C0D80118968C9281FF46
:101FD00004C0F80190859260908782FF07C0D80105
:101FE00018969C911897946018969C9383FF04C050
:101FF000F80190859860908784FF07C0D8011896F3
:102000009C911897906118969C9385FF04C0F801E5
:10201000808580628087015F1F4FFAE0EF0EF11C20
:102020008BE3E81683E0F80609F094CF2A96ECE0FB
:102030000C94C636F801B686A586C4CFAAE0B0E0F7
:10204000E4E2F0E10C94AE36E5E0F3E080E5DF0198
:102050001D928A95E9F7E3E9F4E088E3DF011D9238
:102060008A95E9F785E0C82E83E0D82E7F010BE939
:1020700012E0F701D182C0824AE050E0B801CE01FF
:1020800001960E94013788E0FE013196D601019049
:102090000D928A95E1F789859A85D70113969C93CD
:1020A0008E931297BAE0CB0ED11CE7E0EE0EF11C36
:1020B000065F1F4F0B3EF2E01F07D9F62A96E8E0B5
:1020C0000C94CA36AAE0B0E0E8E6F0E10C94AA3637
:1020D0008E010F5F1F4F8AE0F80111928A95E9F790
:1020E00093E5E92E91E0F92E6801AA24A394B12C7E
:1020F000F70181917F018F3F09F446C0F894E82FE2
:10210000E295EF70F0E021A18F70A50102C0440FAD
:10211000551F8A95E2F7CA01922F982B91A392A19D
:102120008095892382A3789400C0E8E5F1E021E05E
:1021300030E0912C812C41914F3F09F467C0A42FCE
:10214000A295AF70B0E090968C9190E04F7002C075
:10215000959587954A95E2F780FD58C0C901882A70
:10216000992A220F331F51E0E436F50721F7F701D2
:10217000319780818F3F11F00E94EE0880EA8A95A6
:10218000F1F7F60191828082F2E0CF0ED11C48E592
:10219000E41641E0F40609F0ABCF4AE050E0B801A4
:1021A0008FE392E00E94E436892B99F18AE0F801EE
:1021B000AFE3B2E001900D928A95E1F781E0809360
:1021C0003E020E94400590933D0280933C02809124
:1021D0003C0290913D020E9425050597F0F04AE0EF
:1021E00050E06FE372E08CE692E00E94E436892BC7
:1021F000C9F08AE0EFE3F2E0ACE6B2E001900D92C4
:102200008A95E1F781E010923E0208C090E080E0FC
:10221000A6CF80913E028111DACF80E02A96ECE0D1
:102220000C94C63680E0EFCFCF938091E603909177
:102230002F05892B80938A0180913A02882329F106
:102240008091090490910A04892B29F00E94100BB7
:1022500081110E94D60A80918A0190913A02892BBD
:1022600080938A0180911901882309F447C08091E5
:10227000FA0487FF43C08EE1ECE8F1E090E0815082
:1022800008F03EC091110E94D60AC091E304C095A7
:1022900080918A01C8238091E404C82BC0938A01ED
:1022A00040E250E068E172E08AE891E00E94E436A2
:1022B000892B11F180E2EAE8F1E0A8E1B2E00190B7
:1022C0000D928A95E1F7E091F104F091F2043097D4
:1022D00099F080911901882349F08091FA0487FFD1
:1022E00005C0C0938B0186E080938A010280F38150
:1022F000E02D8AE891E00995CF91089586E0BCCF62
:102300002191222309F4BBCF9F5FB9CFCF93DF93F5
:10231000EC01EA85FB85309719F06C857D85099580
:102320008B810E94F50A8C810E94FC0A0E94141184
:1023300086E0FE0111928A95E9F7DF91CF91089529
:10234000CF93DF93EC018D8181FD15C082608D8379
:1023500080912F059B81892B80932F058C810E9472
:10236000030B0E941411E885F985309721F06C85E4
:102370007D85CE0109951092EE041092ED048D81B9
:1023800080FD03C0CE010E948611DF91CF91089598
:1023900080911701877F8093170182E00E94F50AE0
:1023A0008091170184FF06C08F7E8093170182E021
:1023B0000E94030B8091170185FF06C08F7D8093DB
:1023C000170180E20E94030B0E941411089590E00F
:1023D00080E00E94970590E080E00E9481051092C5
:1023E0002F050E94141186E0EDE7F2E0DF011D9257
:1023F0008A95E9F71092770210927602109278028D
:102400000E944207089580932E050E94E7110895C7
:1024100080912E05982F9670963021F488600E9446
:1024200003120895877FFBCF21E030E001C0220F27
:102430008A95EAF7209580912E0582230E94031247
:102440000895909117028095892380931702282F71
:10245000277091F4282F082E000C330B92171306C7
:1024600059F09091FB0492FF07C08595859585955D
:102470000E9414120E94090B08959091FB0492FB94
:10248000222720F9281769F080FB92F99093FB042A
:102490008091FA049091FB040E94520F82E00E9406
:1024A0002112089521E030E001C0220F8A95EAF759
:1024B00080912E05822B0E94031208959091FB04B7
:1024C00092FF10C098E0899F90011124622B6093C5
:1024D00017020E9452120E944005909316028093A8
:1024E000150208950E945212089580933B020E94A3
:1024F000E71108951092E60380911901ECE8F1E0EC
:10250000882361F08091FA0487FF08C08EE1DF0123
:102510001D928A95E9F70E94E711089586E0F7CFAA
:10252000AAE2B0E0E6E9F2E10C94B33685E295E088
:102530002091F100DC012D93CD01B5E08D329B0798
:10254000B9F780912605833009F472C0B8F4813060
:1025500009F449C0823009F4B3C08091E80083FFD8
:1025600096C280912505909126059A3008F08FC279
:10257000E92FF0E0E35AF84C0C9497368A3009F4CE
:102580008EC08B3009F471C0893039F780912505F0
:10259000813219F78091290590912A05009711F051
:1025A0000297D9F68091E800877F8093E8008091B8
:1025B000E80082FF38C09091F3008091F20002970A
:1025C00031F48091F100813011F0863021F4809156
:1025D000F100809301058091E8008B778093E800FB
:1025E0000E941704BACF80912505813A09F0B5CF32
:1025F0008091E800877F8093E80080912905909181
:102600002A05892B61F460E282E095E070E00E9487
:10261000C3048091E8008B778093E8009ECF60E050
:1026200090E080E0F3CF80912D058111C0CF95CF50
:1026300080912505813A09F090CF809129059091EC
:102640002A05892B09F089CF8091E800877F809344
:10265000E8008091E80080FFFCCF80911901809311
:10266000F1008091E8008E77B9CF80912505813205
:1026700009F073CF8091290590912A05892B09F0E3
:102680006CCF8091E800877F8093E8000E94170458
:1026900080912705809319010E947A125ECF809164
:1026A0002505813209F059CF8091E800877F80931A
:1026B000E8000E94170480912805809300054DCF03
:1026C00080912505813A09F048CF8091E800877F05
:1026D0008093E8008091E80080FFFCCF80910005A6
:1026E000BECF803899F0823809F0D1C18091290598
:1026F0008F70873008F0CBC18093E9008091EB00A8
:1027000085FB882780F91092E90006C08091220598
:1027100090912305911182609091E800977F9093AA
:10272000E8008093F1001092F1008091E8008E772C
:10273000AAC1882309F498C1823009F0A8C1809108
:10274000270581119BC1809129058F702FEF280FDC
:10275000263008F09CC18093E9002091EB0020FF17
:102760008DC1933031F48091EB0080628093EB0057
:1027700085C19091EB0090619093EB0021E030E0F7
:1027800001C0220F8A95EAF72093EA001092EA002E
:102790008091EB008860EACF811179C11091270503
:1027A0001F778091E3008078812B8093E3008091F4
:1027B000E800877F8093E8000E9417048091E8007A
:1027C00080FFFCCF8091E30080688093E30082E08B
:1027D000111183E080932D055AC18058823008F092
:1027E00056C120912705309128052C3DE3E03E0796
:1027F000A1F583E08A838AE289834FB7F894DE01EA
:10280000139620E03EE051E2E32FF0E050935700B2
:10281000E49120FF03C0E295EF703F5FEF708E2FD1
:1028200090E0EA30C0F0C7968D939D932F5F2431DE
:1028300059F74FBF8091E800877F8093E8006AE2F4
:1028400070E0CE0101960E94C3048091E8008B776E
:102850008093E8001CC1C096E7CF80912905909134
:102860002A05432F55274330510509F44AC078F50E
:102870004130510509F485C08BE590E0E6E0F5E0D4
:102880004230510509F003C12091E800277F2093D1
:10289000E80020912B0530912C058217930708F44E
:1028A0009C0140E02115310509F070C041116EC056
:1028B0008091E80082FDC9CF80912D05882329F2FF
:1028C000853019F28091E80083FFF2CFBECF41320C
:1028D000510509F447C04232510509F0D8C0833090
:1028E000910508F0D4C0FC01EE0FFF1FE558FE4F24
:1028F0000190F081E02D88589E4FDC018C9190E092
:102900001DC0332721303105E9F02115310579F05B
:1029100022303105F9F02330310509F0B8C0E3E782
:10292000F5E0E4918E2F90E0E3E7F5E007C0E1ECFD
:10293000F5E0E4918E2F90E0E1ECF5E0009709F4EA
:10294000A6C0A2CFE7EAF5E0E4918E2F90E0E7EA97
:10295000F5E0F4CFE1E9F5E0E4918E2F90E0E1E9D4
:10296000F5E0ECCF8330910508F091C0880F991FF6
:10297000FC01EF57FE4F0190F081E02D89E090E0DF
:1029800083CF82E190E0E1E6F5E07ECF80912D05F6
:10299000882309F45ACF853009F457CF8091E80095
:1029A00083FD53CF8091E80082FD82CF8091E800C3
:1029B00080FF78CF9091F3008091F20021153105CE
:1029C00019F08830910550F041E0089709F040E097
:1029D0008091E8008E778093E80064CF4491409323
:1029E000F1003196215031090196E8CF803809F085
:1029F0004EC08091E800877F8093E8008091240595
:102A00008093F10092CE811142C0109127051230BF
:102A1000F0F58091E800877F8093E800109324050B
:102A20000E941704112311F084E005C08091E30097
:102A300087FDFACF81E080932D0542E061EC81E0D3
:102A40000E94360442E261EC84E00E94360442E2D5
:102A500061EC82E00E94360442E260EC83E00E9476
:102A6000360480912D0513C080912705813079F4BB
:102A700081E0933009F080E0809323051092E90013
:102A80008091E800877F8093E8000E94170480917E
:102A9000E80083FF0AC08091E800877F8093E80008
:102AA0008091EB0080628093EB00AA96E3E00C94A7
:102AB000CF36E7E0F4E0128E138E8FEA90E0918338
:102AC000808325E0248F88E893E1938382838AE0E2
:102AD00090E09583848344E150E05783468348E047
:102AE00050E051874087938782876EE170E0758759
:102AF00064879787868780E590E0918B808B538BE6
:102B0000428B48E250E0558B448B42E350E0578BB8
:102B1000468B48EC50E0518F408F158E178E168EE5
:102B200091A380A322A30E949A0E0E947A1210926F
:102B3000FB041092FA04EBEFF4E080818460808360
:102B40008091FA049091FB040E94520F0E941B0D89
:102B50000895AEE1B0E0EFEAF5E10C94A536A0905F
:102B6000E003B090E10381E090E09093E103809373
:102B7000E00310E000E02AE8422E23E0522E3CE879
:102B8000632E33E0732E40E9842E43E0942E82E9D5
:102B9000C82E83E0D82E312C1DC001151105E9F493
:102BA000F701EE0FFF1FEC0DFD1D259134914E2D09
:102BB000632D80E00E94130F8FEFE81AF80AECE013
:102BC000EE16F10451F7F8E1CF0ED11C339485E0F5
:102BD000381649F0F12CE12CE0CF21E030E04E2D09
:102BE000632D802FE7CF0115110509F477C021E08F
:102BF00030E041E060E0802F0E94E20E21E030E012
:102C000040E060E0802F0E94E20E21E030E041E0F1
:102C100061E0802F0E94E20E21E030E040E061E0C0
:102C2000802F0E94E20E0F5F1F4F0430110509F044
:102C3000AECF0E9459151A8219821C821B821E82F5
:102C40001D8218861F8288EC90E09A8789870BE4A2
:102C500012E04AE050E0B801CE0101960E944337ED
:102C6000065F1F4F0B39E2E01E0799F77E01FBE07C
:102C7000EF0EF11C8AE0F70111928A95E9F74AE01C
:102C800050E0B801C7010E944337065F1F4F0B3E5B
:102C9000F2E01F07A1F77E0185E1E80EF11C8AE052
:102CA000F70111928A95E9F78FEF9FEF9A8F898F3D
:102CB00087E08E8F4AE050E0B801C7010E94433799
:102CC000065F1F4F0B33F3E01F07A1F7B092E1033C
:102CD000A092E0036E96E1E10C94C136F2012591D9
:102CE000349141E060E080E00E94E20EF301259122
:102CF000349140E060E080E00E94E20EEEE8F3E014
:102D00002591349141E061E080E00E94E20EF401FF
:102D10002591349140E061E080E083CF80E00E9423
:102D2000390F60E086E290E00E941F370E94A915EB
:102D30000E94D20E81E00E94390F0895CF92DF9257
:102D4000EF92FF928FEF9FEF4430510508F46AC075
:102D5000FB01C080D180E280F3800E947A128091D2
:102D6000FA04C0FA80F9B701A601769567955795E0
:102D7000479540FB81F9B701A60122E0769567955A
:102D8000579547952A95D1F740FB82F9B701A601DF
:102D900033E076956795579547953A95D1F740FB7F
:102DA00083F9B701A601E4E07695679557954795B5
:102DB000EA95D1F740FB84F9B701A601F5E07695D5
:102DC000679557954795FA95D1F740FB85F9B70177
:102DD000A601A6E07695679557954795AA95D1F7F0
:102DE00040FB86F9B701A601B7E076956795579540
:102DF0004795BA95D1F740FB87F98093FA04809103
:102E0000FB04D0FA80F9D1FACC24C0F8C0FA81F9D9
:102E10008093FB048091FA049091FB040E94520F6E
:102E200090E080E0FF90EF90DF90CF9008950E94B7
:102E30007A122FEF84E39CE0215080409040E1F72C
:102E400000C0000088E19CE00FB6F894A89580933C
:102E500060000FBE90936000FFCF882321F00E9496
:102E6000F50A0E9414110895882339F090912F05D6
:102E7000982B90932F050E9414110895882321F018
:102E80000E94FC0A0E9414110895882321F00E94D8
:102E9000030B0E9414110895882379F19CEF980F79
:102EA000913A28F40E942A0B0E941411089590E28E
:102EB000980F983050F4877091E001C0990F8A956F
:102EC000EAF7892F0E94FC0AEFCF9BE5980F933019
:102ED00028F490E080E00E949705089598E5980F07
:102EE000973128F490E080E00E9481050895803FAA
:102EF00020F00E9469070E9442070895FF920F93F5
:102F00001F93CF93DF93F82E0091E8041091E9040A
:102F10000115110509F449C01092E7041092E60466
:102F20001092E3041092E404D8011696CD91DC913E
:102F30009E013A9521153F4108F4D07ED1E0C111A0
:102F400001C0D0E0D8011996ED91FC911A97309705
:102F500031F01B966D917C9180E00995D823DD239B
:102F600039F08CEF8C0F813A30F58C2F0E942A0BB0
:102F7000FF2099F0E091E804F091E904808584FD58
:102F80000CC08091E504882341F0808191819C01EF
:102F900021503109203B3D45A0F00E9414111092B0
:102FA000E9041092E8041092E504C801CDB7DEB739
:102FB000E5E00C94CD360E9414118C2F0E944C1722
:102FC000D7CF0E94BA05E9CFCF93DF93EC010E94DF
:102FD0004C17CE010E94270C9E01205E310928303B
:102FE000310510F0CD2B29F40E943E17DF91CF91CF
:102FF00008950E942D17FACFCF93C82F8823C1F1CF
:103000008CEF8C0F813AB0F580911901882301F182
:103010008091FA0487FF1CC0EC2FE695E695E695B3
:10302000F0E0E657FE4F828190E04C2F477021E0A0
:1030300030E002C0220F331F4A95E2F78223932328
:10304000892B79F08C2F0E942A0B0E94141109C041
:10305000ECE8F1E08191C817A9F381E0E239F807C3
:10306000C9F76C2F8AE891E00E944C050E94141168
:10307000CF91089580E28C0F883048F4C77081E0CA
:1030800001C0880FCA95EAF70E94030BEFCFEBE56A
:10309000EC0FE33040F4F0E0EE5DFE4F808190E015
:1030A0000E949705E5CFE8E5EC0FE73150F4F0E03A
:1030B000EE0FFF1FEB5DFE4F808191810E94810525
:1030C000D7CFC03FA8F28C2F0E9484080E944207ED
:1030D000CFCF1F93CF93DF93182FC0912704D091A8
:1030E0002804893321F0C0912504D0912604812F32
:1030F0000E94FC17209739F4812F0E944C17DF9112
:10310000CF911F9108958FE99FE00197F1F700C0DB
:1031100000002197EFCFB0E0A0E0E1E9F8E10C94E6
:10312000AC36EC018AE0A82E2881222309F48FC056
:103130002130C9F599818A81913021F422960E942B
:10314000691805C0923029F422960E94FC17219636
:10315000EBCF933021F422960E944C17F8CF943095
:1031600011F02196F4CF229630E020E0AE014F5FBF
:103170005F4F8053990B8A30910550F021503109EF
:1031800030F38FE99FE00197F1F700C00000F6CF20
:10319000A29EB001A39E700D11249C01260F371F23
:1031A0008981EA01E3CFE22FF0E0EB50FA4FB490CF
:1031B000822F86958695869590E0FC01EB51FA4F1B
:1031C000E4902770F12C022E02C0F594E7940A9443
:1031D000E2F731E0E322FF24FC01EB52FA4FC49006
:1031E000D12C022E02C0D594C7940A94E2F731E0A4
:1031F000C322DD24FC01EB53FA4F049110E002C01E
:10320000159507952A95E2F701701127E114F1044D
:1032100019F081EE0E94FC17C114D10419F086EE5A
:103220000E94FC178B2D0E946918C114D10419F05B
:1032300086EE0E944C17E114F10419F081EE0E9411
:103240004C170115110509F482CF8CE278CFCDB768
:10325000DEB7EAE00C94C836B0E0A0E0E2E3F9E1C2
:103260000C94AC367C015B01C42FD22FFC0182810F
:103270008823A9F04093EC040E9440059093EB044E
:103280008093EA04C77081E001C0880FCA95EAF70D
:103290000E944517CDB7DEB7EAE00C94C83610910E
:1032A000EC04141338C08091EA049091EB040E945E
:1032B00025056C01B701C5010E94740FC816D90617
:1032C00050F5C0E2CD0F1D17C1F080E2810F8830AC
:1032D00048F4177081E0012E01C0880F0A94EAF7C4
:1032E0000E943E17C83048F481E09D2F977001C0BE
:1032F000880F9A95EAF70E944517802F0E94691857
:10330000C83040F6D77081E001C0880FDA95EAF73F
:103310000E943E17BFCFC77081E001C0880FCA95D9
:10332000EAF7F6CFCF93DF93EC010E94270C9E01C2
:10333000205E31092830310510F0209741F40E94B9
:1033400045178C2F0E94FC17DF91CF9108950E94A2
:103350003417F7CF662329F020912F0522602093A0
:103360002F059C013056211540E2340720F0305ED5
:103370002115304108F499270E9492190895B0E070
:10338000A0E0E5ECF9E10C94AF367C018B01D42E82
:103390008091170182FF8CC0C0912D04D0912E0422
:1033A000CE15DF0521F0E114F10409F081C0809110
:1033B00017018B7F8093170181FD73C080912B04CF
:1033C00090912C04A801481B590B81E02091150114
:1033D000309116014217530708F480E08170F82EEF
:1033E00080911701F0FA81F980931701FE0183E0C3
:1033F000F695E7958A95E1F7EE71FF27E951FC4FC5
:1034000020813181AE014F70552781E090E002C0EC
:10341000880F991F4A95E2F7FF2009F444C0822BD8
:10342000932B918380838091E60381FF08C0809174
:10343000170180618093170182E00E94FC0A80914D
:10344000E60385FF08C08091170180628093170111
:1034500080E20E94FC0A6F2DCE010E94AA19DD2095
:1034600031F08091220485FF02C086FF3BC080912D
:103470002504909126040E94110D80912D049091B5
:103480002E049C013056211540E2340720F0305EB6
:103490002115304108F499270E94E4170E94C811B1
:1034A0001DC081E09BCF8095909582239323B9CF57
:1034B000C701992797013056211540E2340728F0BB
:1034C000305E2115304108F0C7010E94E417809159
:1034D0002D0490912E048E159F0501F310932C045A
:1034E00000932B04CDB7DEB7E7E00C94CB3668EE43
:1034F0007EEF90E080E00E943D3760E082E090E067
:103500000E941F3760E083E090E00E941F37109216
:103510003B0260E084E090E00E941F3764E082E2BA
:1035200090E00E941F3760E085E090E00E941F3726
:1035300060E086E090E00E941F376FEF87E090E048
:103540000E941F3740E050E0BA0188E090E00E94FE
:10355000313760E08DE090E00E941F3740E050E09E
:10356000BA0188E190E00E94313760E087E190E0A5
:103570000E941F3740E050E0BA018CE190E00E94C9
:10358000313770E060E080E290E00E943D3740E03B
:1035900050E0BA0188E190E00E94313780E00E945B
:1035A000390F0E948E1640E050E0BA018FE090E0A3
:1035B0000E94313740E050E0BA0183E190E00E9480
:1035C00031370895A7E0B0E0E8EEFAE10C94A436B4
:1035D0007C01DC0113964D915C91149711966C91CE
:1035E00011978C910E942B068111EEC061E0C701FA
:1035F0000E944F0E8C01F70182818823E1F08091B7
:10360000ED049091EE040097B1F00817190799F0B6
:10361000FEE08F9FC0011124FC01E656FD4F208182
:10362000246020838B569D4FDC010D931C930E94D8
:10363000A01110922F05F7018281882311F40C94B8
:10364000A223C80182519F45409710F00C94962305
:103650008FEF93E00E9411378111A6C07EEED72E26
:10366000D00E0BE313E0D11036C019821A821B82F0
:103670001C8299249A9468012FEFC21AD20AC801B9
:103680000E94113789831A82882309F48DC0813002
:1036900009F07FC0580132E0A30EB11CC6010E94A0
:1036A0001137C82E8A83882309F47EC0C5010E9481
:1036B0001137D82E8FEF8C0D8330D8F4580143E0AA
:1036C000A40EB11CDB82DD2021F0CE0101960E9408
:1036D0008B188501D0CF0115F4E01F0709F464C0F1
:1036E000C8010E941137811101C0DA940F5F1F4F8A
:1036F000BACF8BEF8C0D833030F5C8010396DB8297
:103700005C01DD2031F3580154E0A50EB11C0E948C
:1037100011378C838823E9F28B819C818130AFEF54
:103720009A0710F0982F8827B6E0CB1631F0E7E023
:10373000CE1631F00E94112BCCCF0E94EB2AC9CFBC
:103740000E94722AC6CFF4E0CF12C3CF580124E002
:10375000A20EB11CC80103960E941137DD2021F191
:10376000882311F18150990B989E9001999E300DFC
:1037700011244D2D4150550BCA01820F931F019703
:1037800008F4A7CFAFE9BFE01197F1F700C0000040
:10379000F6CFCE0101960E948B1856019ACF81E098
:1037A0000E9452120E94081280911702877061F0E5
:1037B000D70112968C91882339F08091FB0482FF07
:1037C00003C082E00E9421122796E2E10C94C036E9
:1037D00081E00E941412E6CF82E0FBCF823011F02C
:1037E0000C94E02380918F0290919002892B09F430
:1037F000E7C72EE02C9DC0012D9D900D1124FC01EA
:10380000E656FD4F20812E7F20838B569D4F0E94D0
:10381000A011D6C781E080930001C6CF809100013E
:10382000882309F4AFC6480120EE821A910840901F
:103830003A028091AD01482A8091E603482A38E097
:103840008316910408F086C098012770332781E021
:1038500090E001C0880F2A95EAF7552009F477C057
:10386000482AD7018D919C910E94A60B21E030E05F
:10387000F90102C0EE0FFF1F8A95E2F7FF83EE8386
:103880002090E8043090E9046090AA017090AB01A8
:103890001D822D81E22FF0E0EE0FFF1FEA5AFC4F50
:1038A000C080D180C114D10409F4D0C6411005C034
:1038B000D60112968C91811189C0F601838190E026
:1038C0002E813F8182239323892B09F47FC0808539
:1038D000982F977009F487E038E08316910408F078
:1038E00053C0552009F44CC086958170882309F493
:1038F0006DC0D601AD90BC900A151B0519F455207A
:1039000009F464C0C214D30409F460C0D6011D9642
:10391000ED91FC91309721F08081882309F456C005
:10392000642DC6010E940B06882309F44FC00A15B6
:103930001B0509F099C70115110509F49AC7511023
:103940009AC7A614B70409F041C0512C94C78095BA
:10395000482287CF552009F462C61093AB0100932B
:10396000AA010E9434056093DF047093E004809301
:10397000E1049093E2041092E7041092E60471CF00
:1039800082FB882780F9B2CF552001F18170AECF3C
:103990000E944C178EC70497813A910558F46A2DFE
:1039A0008AE891E00E944C05552009F4EBC50E947D
:1039B0001411FACE0E9414118FE39CE90197F1F7DC
:1039C00000C000008A2D0E94FC17EECF9D819F5FF2
:1039D0009D835FCFFC01208131810217130709F01D
:1039E000CAC55110CAC51092E50480E00E947E1736
:1039F000C9C5902F812F0EC6F901858181FF3AC676
:103A0000C9010E94861136C680911701816080939A
:103A100017015EC6809117018E7F809317010E9467
:103A2000C81156C6809117018F7E013E110531F0F5
:103A3000053E1105C9F4809117018F7D8093170110
:103A40008091170180FF53C6D70112968C910832DE
:103A5000110528F50E31110508F072C0043011056A
:103A600080F5811140C643C6C8019056811540E2D9
:103A7000940720F0905E8115904110F78091170116
:103A800082FF35C68091240481FD31C628E532E0ED
:103A900040E0B60190E080E00E94BF1928C60933DB
:103AA000110558F40D32110518F40B321105C9F641
:103AB0009091220492FDD5CF08C004361105C1F3C0
:103AC000D0CF9091220494FDCCCF882309F4A8C0D4
:103AD00080913A029091E603892B8D7FB1F110928B
:103AE0002E0410922D048091220481FD2EC0F80135
:103AF00043E0F695E7954A95E1F7EE71FF27E95126
:103B0000FC4F98012F70332781E090E002C0880FAE
:103B1000991F2A95E2F78095909520813181822323
:103B200093239183808360E0C8010E94AA19809149
:103B30003A028D7F0E94E10A82E00E94211234CE77
:103B40009091220493FD8DCFC0CF88E0F701A8E5C6
:103B5000B2E001900D928A95E1F710925A0210920C
:103B60005C0210925B0280912D0490912E04081744
:103B70001907D1F52091220425FF36C03091170195
:103B800031FF02C026FF30C020912B0430912C045D
:103B90005601A21AB30AB7010E94740FA816B906FB
:103BA00018F58091E60381FF08C0809117018061BC
:103BB0008093170182E00E94FC0A8091E60385FF52
:103BC00008C08091170180628093170180E20E94F3
:103BD000FC0A609117016695617080912D049091A7
:103BE0002E040E94AA19E0CD80913A029091E6033A
:103BF000982B2091170191FB21F9209317018D7FBC
:103C00000E94E10A10932E0400932D04D0922C04FC
:103C1000C0922B04809117018460809317018CCF90
:103C2000970140E0B601C8010E94BF19BDCD053F14
:103C30004CE5140709F463C008F45BC0063F8CE54B
:103C4000180709F462C0D70112963C91332309F496
:103C5000D8C51092EC040330BDE51B0708F061C025
:103C60000A3FECE51E0730F4C80182509C4544979A
:103C700008F063C00E94760E9093FB048093FA04D0
:103C800002315CE5150709F49EC108F0EEC0093069
:103C90009CE5190709F475C108F0B8C00530BCE50A
:103CA0001B0709F462C108F09FC00330FCE51F0741
:103CB00009F453C108F055C18091FA0481600230C3
:103CC0003CE5130709F4CEC08091FA049091FB04FF
:103CD0000E94520F0E947A1267CD07E225EE45EE50
:103CE00068ED7CE51FC506E221EE40EE63EF7CE562
:103CF00019C507E225EE44EE64EF7CE513C506E244
:103D000021EE42EE65EF7CE50DC507E225EE46EEBD
:103D100066EF7CE507C508E221E045EE69ED7CE54C
:103D200001C5053AFDE51F0709F4A4CF08F055C009
:103D300001364DE5140709F49DCF06318CE51807CF
:103D400009F464C50A355DE5150709F495C108F065
:103D50006EC101159CE5190709F474C10E3D1C459F
:103D600009F47DC1F70186819781009709F488C124
:103D70000E944809182F092FF701D280C580C294EC
:103D80003FE0C322809117028770C1F0AD2CDD2087
:103D9000B1F0892F807F803421F080E2810F88305C
:103DA00068F08091FB0482FF09C082E00E9421122A
:103DB000809117028770AA24A3948111A12C902EC0
:103DC00092942FE09222FBE0F91508F4E6C1E92D68
:103DD000F0E0E959F84C0C949736C8018D5A9D458E
:103DE000039708F0AACF46CF8091FA04806207308B
:103DF0004CE51407B9F18091FA04806108305CE564
:103E0000150780F18091FA0480642CC00D308CE598
:103E1000180709F4C0C090F48091FA048E7F0B302B
:103E2000ACE51A07F9F08091FA048C600C30BCE51F
:103E30001B07C0F08091FA048D7F14C00F30ECE5B1
:103E40001E0709F4B8C008F4AAC000312CE5120717
:103E500009F4B5C08091FA048F7B01313CE513076A
:103E600009F032CF8093FA042FCF0F3F4CE51407AF
:103E700009F4B3C0A8F50A3F8CE5180709F479C026
:103E8000C0F40431ACE51A0709F4B5C008F4A1C0C8
:103E90000531ECE51E0709F017CF8091FA0482FB8B
:103EA000992790F921E0922790FB82F990FB83F902
:103EB000D9CF0C3FFCE51F0709F475C008F45DC0BD
:103EC0000D3F3CE5130709F472C08091FB04836049
:103ED0000E3F4CE5140709F0F7CE8093FB04F4CEB7
:103EE00001365DE5150709F491C090F401309DE5B8
:103EF000190709F489C008F474C060E00230BDE518
:103F00001B0709F0E1CE8EE090E00E941F37DCCE67
:103F10000D3AEDE51E07E9F060F49091FA04892F5F
:103F20008E7F90FF8160053A2DE5120709F49ACF44
:103F3000CBCE0E3A3DE5130751F10F3A4DE514078C
:103F400009F0C2CE9091FB04892F877F93FF886090
:103F5000C4CF8091FB048860C0CF8091FA04826056
:103F600081CF8091FA0484607DCF8091FA048860CB
:103F700079CF8091FB048160B0CF8091FB04826097
:103F8000ACCF0E947A128091FA0480686BCF809146
:103F9000FB04877FA2CF8091FA048B7F63CF80914F
:103FA000FA04877F5FCF8091FB048E7F96CF80914C
:103FB000FB048D7F92CF8091FA048F7E53CF809146
:103FC000FA048F7D4FCF0E947A128091FA048F7786
:103FD00049CF8091FA04837F45CF8091FB048C7F89
:103FE0007CCF8091FB04982F909591708E7F892BC8
:103FF00090FB81F972CF0E947A129091FA04892F76
:1040000097FB87F980582ECF61E07DCF9091FA041D
:10401000892F8F7E94FF806125CF8091AC01811123
:1040200004C089E20E942A0BC2CC85E3FBCF0C3589
:10403000BDE51B07B9F010F1073A1D4509F092CE16
:104040000E9417170E947A122FEF34E34CE02150A0
:1040500030404040E1F700C000000E94ED0C0E949B
:10406000771AEECF8091FB0482FB882780F991E0DC
:1040700089270E943D1276CE81E0FBCF80E0F9CF08
:10408000828100811181882369F0C8010E94D30DCB
:10409000D82E682FC8010E94F00BB8018D2D0E9408
:1040A000A90D66CEC8010E94A60BD82EF6CF202FF0
:1040B0002F70B22E802F807F19F0B29490EFB9222A
:1040C000DD20A9F0BB2059F080E2810F883010F08C
:1040D000111107C08B2D0E94030B0E941411812F18
:1040E0005AC080912F05B82AB0922F05F6CF812FA4
:1040F0000E944C17BB2009F450C080E2810F883029
:1041000010F0111104C08B2D0E94FC0A03C08B2DEE
:104110000E94F50A0E94141140C0302F3F70B32E48
:10412000802F807F803219F0B29480EFB822112363
:1041300021F1113009F4AEC0DD2009F4B7C0CC2064
:1041400009F47FC020E0D7014C9111965C91119742
:1041500012966C91129713967C91139714968C91EA
:104160000E942C0E8091240481FDB9CFF701858136
:1041700080FFB5CF8F70858364C08091FB0482FD82
:1041800040C0DD20C1F1BB2029F08B2D0E94030B24
:104190000E94141180E00E94FC17A92DA850BB0BAF
:1041A000149710F40E94AD05812F902F0E940C0CE3
:1041B0008111C2C11092AF011092AE01AA20B1F0DC
:1041C0008091170280FD12C0D70112961C9285952E
:1041D000859585950E945212C7010E94E21A80912E
:1041E00017028595859585950E94141260E0C70198
:1041F0000E944F0EE9CA80E00E944C17BB2069F272
:1042000082CFDD2011F1C11004C080913A028B29C8
:1042100019C041E0C41206C080913A028B290E9465
:10422000E10ABBCF80912304823078F3C812EDCF2E
:104230000E94D60A9091AD018B2D892B8913809312
:10424000AD018B2D0E944517A8CFC11003C00E945D
:10425000D60A17C08091230451E0C51216C08230DF
:1042600008F49BCF8091E6038B2109F496CF0E943E
:10427000D60A9091AD018B2D809589238913809367
:10428000AD018B2D0E943E1788CF823000F3C812FB
:10429000DECF83CF80912904DD2021F08C1508F436
:1042A0007CCFCFCFC81608F078CFEBCFCC2049F326
:1042B0008091270490912804193321F080912504DE
:1042C000909126040E94110D812F0E944C1765CFFA
:1042D000802F86958695837069F0813009F05DCFD7
:1042E000812F902F9370D11002C090E080E00E9447
:1042F000810553CF812F902F9370D11002C090E091
:1043000080E00E94970549CF812FDD2029F00E948F
:1043100084080E94420741CF0E946907FACF802F8C
:10432000837091F5D11039CF412F42954695477052
:10433000440F440F812F8F70042E01C0880F0A9400
:10434000EAF7212F207114FF07C02FE030E001C0F1
:10435000220F4A95EAF72095302F3695369533701F
:10436000323069F050F440913B02313029F0822B19
:1043700084230E94751211CF842B822BFACF282B15
:1043800080913B028227F5CF8695DD2011F0802FAA
:104390008170882309F401CF412F429546954770DB
:1043A000440F440F812F8F70042E01C0880F0A9490
:1043B000EAF7212F207114FF07C02FE030E001C081
:1043C000220F4A95EAF72095302F369536953370AF
:1043D000323069F050F440912E05313029F0822BB3
:1043E00084230E940312D9CE842B822BFACF282B50
:1043F00080912E058227F5CFF02FFF70BF2EDD2094
:1044000029F08F2F0E945212812F1CCF812F0E94E2
:104410003E178B2D0E941412C0CE123F89F160F41A
:10442000103FB9F0113F81F0DD2009F480C0C110C8
:1044300056CE802F8F7128C0133F49F1143FA1F74A
:104440008091FB0482FD2FC0802F8F71DD2011F33E
:104450001BC080912904DD2079F0C81608F09DCE9C
:10446000202F2F7181E090E001C0880F2A95EAF794
:1044700090912E058927B5CF8C1508F48ECEF0CFFC
:10448000802F8F71D110C6CF0E94521286CE80E04D
:10449000DD2009F4A6CF81E0902F9F7101C0880F25
:1044A0009A95EAF79ECF80912304823040F1DD2077
:1044B000D1F0909117029770943041F40E94090B4B
:1044C000802F8F710E941412A12C67CEC816E0F7BE
:1044D000202F2F71B22E822F0E94521263E08B2D5B
:1044E0000E945E12F1CFC81630F00E94090B64E002
:1044F000802F8F71F5CF81E00E942112E5CFDD2062
:1045000059F0302F3F71B32E832F0E94521263E077
:104510008B2D0E945E1241CE81E00E94211241E06B
:104520004C1508F03ACE82E00E94211236CEC1101E
:10453000BFCE802F8F716ECFDD2019F0C1103ACE23
:104540003DCEC11037CE20E0F7014081518162811C
:10455000738184810E942C0E8091240483FF2ACED3
:104560008091AE019091AF01029709F023CE812F87
:104570000E9469181FCE552029F0DC0118968C91F5
:1045800085FF33CAC80197558F3F910511F008F098
:1045900071C05801BB24BEE00B9FF00111249F01A4
:1045A0002B563D4F6901D70112968C91E656FD4F6F
:1045B000908180FB90F99083882309F41DCA0E94A2
:1045C00040059093570280935602F60182818F5FD7
:1045D000828380912F059091E603892B83838091BC
:1045E0003A0284830680F781E02D309731F0D601BE
:1045F0001C966D917C91C60109958EE08A9DF00113
:104600008B9DF00D1124EB56FD4F858181FFF1C983
:1046100090E080E09093ED048093EE042BC08091B5
:10462000AA019091AB010817190781F41092AB0110
:104630001092AA011092DF041092E0041092E1049B
:104640001092E2041092E7041092E6048091E804CC
:104650009091E904009709F495CFA8E08A16910497
:1046600008F0B8C9642D0E940B06811103C081E0D7
:104670000E947E178091220480FF39C00E9440056D
:104680006C01D70112968C91882309F4CBC98091D3
:10469000170182FF08C028E532E040E0B60190E053
:1046A00080E00E94BF190B31BCE51B0709F4ACC9BF
:1046B0000C31ECE51E0709F4ADC990911701892F63
:1046C0008E7F90FF81600A31FCE51F0709F4A5C9C0
:1046D000C8019056811520E2920728F0905E81155E
:1046E000904108F0ADC910922E0410922D04033FA2
:1046F000BCE51B0709F4F7CA08F099CA083DFCE5B8
:104700001F0709F4EACA093D2CE5120709F403CB97
:10471000073D3CE5130709F096CA06E221EE41EE9B
:1047200067ED7CE5C7010E942C193EC80031FFE50A
:104730001F0709F434C801312FE5120709F040C002
:1047400082E02EC800313FE5130709F441C801316A
:104750004FE5140709F440C86801E7E5DE1AFFEFEA
:10476000CF16D10409F060F56BE872E08C2D0E9441
:10477000600F892B29F58EE08C9DF0018D9DF00D49
:104780001124EB56FD4F8281813009F027C88091BA
:104790008B0290918C02892B99F080918D029091DF
:1047A0008E02892B69F080918F0290919002209166
:1047B000910230919202822B932B892B09F419C814
:1047C000D70112965C90552009F428C80F35BDE535
:1047D0001B0709F41FC80036EDE51E0759F00E351A
:1047E000FDE51F0709F01AC880910001882311F424
:1047F0000C940A1C1092000180E00E947E170C9419
:10480000D41B06315CE5150709F0ACCA8091E603BC
:10481000982F9A7A2091210420FF04C0482F4474D5
:1048200009F090E021FF04C0482F417109F090E0A9
:1048300022FF04C0482F487809F090E023FF03C00E
:10484000827209F090E0332309F4E7CB81E0911103
:1048500001C080E08093AC0169E2911165E38AE8D0
:1048600091E00E944C05A3C8A114B10409F069C8E5
:10487000512CB12CA12C80E00E947E17D092E9042B
:10488000C092E80481E08093E504F601858180937D
:10489000E30451100EC0AB2861F0F60180819181D4
:1048A0009C0124503109213A310508F071C80E9459
:1048B0002A0BD6011696AD90BC90C5019A9581152C
:1048C0009F4110F4E0EEBE2277247394C501019756
:1048D000803B9D4508F0712CD6011996ED91FC9115
:1048E0001A97309731F01B966D917C9181E0099574
:1048F0007822772079F0F601868197810E94270C33
:104900008093E404C501F8E08F16910408F043C8D1
:104910000E94BA050E94141147C8B0E0A0E0E3E984
:10492000F4E20C94AE368091D001807F31F4809116
:10493000CD01C0911402811107C0CDB7DEB7E8E008
:104940000C94CA362196C7708091D3018C17A9F3B5
:10495000F090CB01E090CC01C090CE01D090CF017F
:10496000A6016E2D8F2D0E942B06D0E08111EACF7B
:104970008E0183E0000F111F8A95E1F7F801EC52D8
:10498000FE4F81818E11DECF80818F11DBCF82813E
:104990008111D8CFE380F480EC18FD0860E08BEC47
:1049A00091E00E944F0E6BEC71E00E94740FE816CC
:1049B000F90640F68091D0018F7080618093D0011C
:1049C000F801E752FE4F80818F70806180838BEC0D
:1049D00091E00E94E21A0E94750BAFCFA5E1B0E012
:1049E000E4EFF4E20C94A7368C0185E0F801DE01D7
:1049F000519601900D928A95E1F7D8015C9011963D
:104A00006C9011971296EC9012971396CD90DC90C3
:104A100060E08BEC91E00E944F0E8BECA82E81E0C1
:104A2000B82E8090CE019090CF01A4016091CC016E
:104A30008091CB010E942B068111A8C1F090CD017D
:104A4000F601E819F9094F0160E0FF2009F44BC1B4
:104A5000C5010E944F0EB5010E94740F7090D001E5
:104A60008816990608F0F2C04091CE015091CF010E
:104A7000B090CB01A090CC01872D807F6A2D09F0EA
:104A80008CC08B2D0E942B06FE2C811127C0D801D3
:104A900011968C9111978A1121C08C918B111EC097
:104AA0002091D1013091D20116968D919C912817B9
:104AB0003907A1F4E11012C0872D8F7080618093B7
:104AC000D0018BEC91E00E94E21A8091D001F801B4
:104AD00085838F2D6596EFE00C94C336A601662D75
:104AE000852D0E942B06D82E81E08E25D11080E0E6
:104AF00080FF18C04E2D662D852D0E94550B8823F2
:104B000089F08091240480FF0DC08BEC91E00E941D
:104B1000E21A88E0EBECF1E0DF011D928A95E9F7FB
:104B2000F12CD7CF81E08E25D11080E0B82FB17065
:104B3000CB2E80FF29C04E2D662D852D0E94550B52
:104B4000D82E811121C0598A6A8A89899A890E943E
:104B5000020E292F22952F70223050F0243078F445
:104B60009F7051F0F8019581907F31F4FD2CB1CF09
:104B70009F7011F08823D1F3805E8830B8F3C801AC
:104B80000E94E21ADC2CF2CFEE2009F4A2CF809131
:104B9000D00181608093D001C3CF8B2D0E942B0662
:104BA000811124C0D80111968C9111978A111EC0D1
:104BB0008C918B111BC02091D1013091D20116969E
:104BC0008D919C9117972817390781F4E1100EC039
:104BD00015967C92C8010E94E21A88E0F801ABECBD
:104BE000B1E001900D928A95E1F773CFC8010E9460
:104BF0000F0E882339F1EE2029F18091D001803207
:104C0000A0F02091CB013091CC013A8729871B86F7
:104C1000DD86CC868E878091D1019091D201988BD0
:104C20008F87CE0109960E94E21A88E0F801ABEC6A
:104C3000B1E001900D928A95E1F70E948D24FF2446
:104C4000F39447CFC8010E94E21AF9CF872D807FE5
:104C500009F45BCF9090CB018090CC014091CE01C4
:104C60005091CF01682D892D0E942B0681111CC007
:104C7000F8018181881118C08081891115C02091A7
:104C8000D1013091D201868197812817390761F4CB
:104C9000E1100AC07582C8010E94E21A88E0D501BD
:104CA0001D928A95E9F715CFC8010E940F0E88233F
:104CB00049F2EE2039F28091D001803208F4B5CF6C
:104CC0002091CB013091CC013A8329831B82DD8274
:104CD000CC828E838091D1019091D20198878F836D
:104CE000CE010196A0CF8BEC91E00E944F0E6BECB1
:104CF00071E00E94740F8816990680F6FE2CEE2053
:104D000009F4A0CFE090CB01D090CC014091CE012E
:104D10005091CF016D2D8E2D0E942B06811128C040
:104D2000F80181818D1124C080818E1121C02091D4
:104D3000D1013091D2018681978128173907C1F4BA
:104D40008091240482FD49CF9091D00190FD45CF00
:104D5000907F09F442CF8091D0018583903F09F480
:104D600039CF982F907F905F8F70892B858332CFBA
:104D7000C8010E940F0E811158CF8091D00181602F
:104D80008093D001C8010E94E21AA3CEEE2009F45C
:104D900059CFC8010E940F0EF82E882309F452CF74
:104DA00088E0F801ABECB1E001900D928A95E1F753
:104DB0008091CB019091CC010E94020E0E948D2423
:104DC00088CEA0E1B0E0E7EEF6E20C94B436298795
:104DD0003A874B875C876D877E878F87988BCE015C
:104DE00009960E94EE2481112FC088E0FE013996B9
:104DF000DE01119601900D928A95E1F74C855D8553
:104E00006A8589850E942B0681111EC0A091D3015D
:104E1000B0E0CD01019687709927209114022817E0
:104E20001906E1F093E0AA0FBB1F9A95E1F7AC5287
:104E3000BE4F98E0FE01319601900D929A95E1F7F0
:104E40008093D3010E94750B809114029091D3013D
:104E5000891312C06096E2E00C94D0360E947A1258
:104E60001092D3011092140288E0EBECF1E0DF0124
:104E70001D928A95E9F7E8CFB8E08B9FC001112415
:104E80008C529E4F0E94EE24882321F380911402BD
:104E900090E001968770992780931402D5CFEF9206
:104EA000FF920F931F93CF93DF9380913204882357
:104EB00061F0C09131048CE0F82E80913204C81763
:104EC00048F01092320410923104CDB7DEB7E6E01C
:104ED0000C94CC36EE24E394EC0EE09231040C2FCB
:104EE00010E0CF9DE0011124CD5CDB4F4B815C8154
:104EF000698188810E942B0681111DC08E819F814E
:104F0000892B21F488859985019651F4288139816E
:104F10004A815B816C817D818E819F810E94E12627
:104F2000F09EF001F19EF00D1124ED5CFB4F148218
:104F3000138210922F05CE2DC0CF1092D60410925E
:104F4000D504109218018091D4048093D3040E9458
:104F500064060E944F270895B0E0A0E0E2EBF7E27C
:104F60000C94A536C091D30497E0892E01E010E09F
:104F70002CE0322E3EEF932E442443948091D404AF
:104F80008C1309C00E944F270E946406CDB7DEB77C
:104F9000E1E10C94C136D0E0FE01EE0FFF1FE553B6
:104FA000FB4F80819181889ED001899EB00D112494
:104FB000AD56BB4F14962C911497211158C05090A8
:104FC0003204E3E3F4E030E020E0712C5D012515CC
:104FD00008F04BC0E284F384D501CD90DC906FEFF4
:104FE0007FEF612C462D50E0DA01AA0FBB1FAC0DFC
:104FF000BD1D0D90BC91A02D109731F0EA16FB0657
:1050000009F4BA016394EECF6F3F7607A9F1D80196
:1050100002C0AA0FBB1F6A95E2F77A2AB801062CD4
:1050200002C0660F771F0A94E2F7AB0141505109A5
:1050300074161506F9F4329EF001339EF00D11241A
:10504000ED5CFB4F889ED001899EB00D1124AD56BA
:10505000BB4F12962D913C911397378326839082F4
:1050600091829187808715964C920E9436062196F0
:10507000C37084CF148213822F5F3F4F3C96A7CF1B
:10508000A9E1B0E0E6E4F8E20C94A436942F498B51
:10509000252F5A8B6B8B7C8B8D8B4C895D89622F76
:1050A000892F0E942B06811109C08091AE01909139
:1050B000AF0101969093AF018093AE018B8981116E
:1050C00010922F051D861E861F86188A85E0FE0118
:1050D0007196DE01199601900D928A95E1F7809103
:1050E000FB0482FF1EC08091090490910A04892B61
:1050F000C1F00E9440052091150230911602821BDA
:10510000930B2091090430910A048217930720F031
:105110008091170282FFE2C10E94100B81110E9450
:10512000D60A4C855D856A8589850E942B0681118A
:1051300011C061E0CE0109960E944F0E6C018B8573
:1051400027EFC2162CE5D20681F4882321F181E0F5
:105150008093180129853A854B855C856D857E8510
:105160008F8598890E94E126C6C038EFC3163CE5BA
:10517000D30629F4882379F00E949D27EBCF49EFCD
:10518000C4164CE5D40639F4882329F0809118011F
:105190008111F2CFDCCF03E914E0512CB12CA12C0A
:1051A00022242394312C2EEF422EF801408151818C
:1051B00088248A94982C20E0822F90E0FC01EE0F46
:1051C000FF1FE40FF51F608171816115710531F0DA
:1051D000C616D70609F44C012F5FEECFF12CFFEF76
:1051E0008F169F0609F449C0F8014481F090180118
:1051F0008F2D411180E0F82FF170FF2EF801E5802E
:1052000086819B85992309F4F8C0FF2009F4F5C035
:1052100060901D0470901E04E11013C0A101082CC1
:1052200001C0440F0A94EAF7842B868380912F04EF
:10523000909130048615970520F4709230046092A6
:105240002F04C10102C0880F991F2A95E2F7019728
:10525000F80126812817190681F48091D5049091D0
:10526000D604009709F44BC00E94250568167906FC
:1052700008F045C021E0F80124835F28FFEFAF1A52
:10528000BF0A095F1F4F28E0A216B10409F08DCFB5
:105290008B85882309F40DC1552009F40AC10E94A9
:1052A00040059093D6048093D504809132048830D1
:1052B00010F591E0980F9093320498E0FE01399632
:1052C000DE01119601900D929A95E1F73CE0839FE3
:1052D000C00111248D5C9B4F28E0FE013196DC015A
:1052E00001900D922A95E1F72FEF3FEFFC013187F6
:1052F0002087D386C2866996E2E10C94C0368091FD
:10530000D3045091D404982FF0E0E0E0851314C04A
:105310009093D304E017F10709F4AFCF90E0FC01BC
:10532000EE0FFF1FE553FB4FB182A0820196837001
:1053300099278093D404A1CF682E712CF301EE0F2E
:10534000FF1FE553FB4F2081318147E0429FD00191
:10535000439FB00D1124AD56BB4F6D917C911197B9
:10536000798F688F40E020E030E0E32FF0E0EE0F2F
:10537000FF1F688D798DE60FF71F80809180811463
:105380009104E1F0F8010190F081E02DFF8BEE8BAC
:1053900020E005C08616970609F44F2D2F5FE22FF7
:1053A000F0E0EE0FFF1F6E897F89E60FF71F608127
:1053B00071816115710571F73F5FD7CF4423D1F03B
:1053C000F801231708F0FD0121E024830E171F07C1
:1053D00021F49093D304F42E50CF981305C0AE1748
:1053E000BF0711F49F5F937093012F5F3F4F822F90
:1053F00083708CCFF0E0E0E0F7CF90E0E11020C0C8
:10540000B10102C0660F771F2A95E2F79B01215078
:1054100031098217930731F4442309F448C0C501C8
:105420000E943606C101082C01C0880F0A94EAF7D1
:10543000982F9095F801868189238683FE2C1DCFB5
:105440009C01082C02C0359527950A94E2F7A90122
:1054500041705527BC016150710986239723892B20
:1054600011F5452B01F1F80182819381892BC1F05F
:105470001B821C821D821E8249824A820E94400534
:105480008160582F9D838C83F801828193818F8363
:10549000988729813A814B816D817E810E94E12626
:1054A000F8011582BFCFF22FF170EF2EBBCFEF2C9A
:1054B000B9CF9091D3048091D404981731F00E9411
:1054C000AC27552009F446CE16CF0E944F271092E4
:1054D000D6041092D5040E946406F3CF82E00E94A5
:1054E00021121ACEA5E0B0E0E8E7FAE20C94B43657
:1054F0009093E3038093E203811520E2920730F456
:105500000E94E4172596E2E00C94D03680EF898360
:105510008A831B820E9440058160782F9D838C8343
:1055200049815A816B818D810E944028EBCF0F9376
:105530001F93CF93DF938C01EB016BE872E08C2F0C
:105540000E94600F892BA1F480912504909126047C
:105550000E94110DDD27CD57DD4F8881F8011282A1
:1055600018828330F1F048F4813059F0823081F0B4
:10557000DF91CF911F910F9108958430B9F085305C
:10558000B9F780918B0290918C02009789F306C045
:1055900080918D0290918E02009799F30E94722A59
:1055A000E7CF80918F0290919002F6CF8091910287
:1055B00090919202009791F720918B0230918C028A
:1055C00080918D0290918E0221153105F1F20097A4
:1055D00029F7C901E3CFA5E0B0E0E1EFFAE20C94CE
:1055E000B4369093E3038093E203811520E292079F
:1055F00030F40E9492192596E2E00C94D03680EFA8
:1056000089838A8381E08B830E9440058160782FA3
:105610009D838C8349815A816B818D810E944028B2
:10562000EACFCF93DF93EC010E94EB2A809125040F
:10563000909126040E94110DCE010E94722ADF91E2
:10564000CF9108950F931F93CF93DF938C01862FF3
:105650006BE872E00E94600F892BB1F4C0918B025D
:10566000D0918C02209781F0F8018281833051F42F
:10567000CE010E94112BCE010E94112BCE010E945F
:10568000112B02C08430D0F7DF91CF911F910F9181
:1056900008950F931F93CF93DF938C01EB016BE879
:1056A00072E08C2F0E94600F892B09F05CC0FE0114
:1056B000FF27D80112968C911297ED57FD4F81303C
:1056C000B9F415969C9192FF02C080830AC090FFA6
:1056D000FCCF82E0808380918D0290918E020097B2
:1056E000B9F480918B0290918C020097E1F110C087
:1056F0008230B9F515968C9182FD28C080FD0BC0D3
:1057000083E0808380918F0290919002009701F155
:105710000E94EB2A28C084E08083809191029091BE
:1057200092020097A9F780918B0290918C020097CA
:10573000F9F00E94112B80918D0290918E020097BA
:1057400039F780918B0290918C02E2CF85E08083C3
:1057500080918B0290918C02009729F00E94112B6E
:10576000F0CF86E08083DF91CF911F910F91089554
:1057700080918D0290918E02B8CF1F920F920FB63A
:105780000F9211242F933F934F935F936F937F93C7
:105790008F939F93AF93BF93CF93DF93EF93FF9339
:1057A000D091E900DF708091EC00C82FC17080FDBE
:1057B000C0E81092E9008091F000877F8093F000AC
:1057C00078940E9490121092E9008091F000886015
:1057D0008093F000CD2BCF70C093E900FF91EF9143
:1057E000DF91CF91BF91AF919F918F917F916F91F9
:1057F0005F914F913F912F910F900FBE0F901F908F
:1058000018951F920F920FB60F9211242F933F936A
:105810004F935F936F937F938F939F93AF93BF93B8
:10582000EF93FF938091E10082FF09C08091E20035
:1058300082FF05C08091E1008B7F8093E100809121
:10584000DA0080FF24C08091D80080FF20C08091C2
:10585000DA008E7F8093DA008091D90080FF9DC0AE
:1058600080E189BD82E189BD09B400FEFDCF81E000
:1058700080932D058091FF04811109C00E9475035A
:105880000E9468048091E20084608093E20080912D
:10589000E10080FF17C08091E20080FF13C080917B
:1058A000E2008E7F8093E2008091E200806180932D
:1058B000E2008091D80080628093D80019BC85E016
:1058C00080932D058091E10084FF2BC08091E20040
:1058D00084FF27C080E189BD82E189BD89B5982F09
:1058E000917080FFFBCF8091D8008F7D8093D8008E
:1058F0008091E1008F7E8093E1008091E2008F7EB5
:105900008093E2008091E20081608093E2008091C8
:105910002405882309F447C084E080932D058091F5
:105920002D058091E10083FF27C08091E20083FF75
:1059300023C08091E100877F8093E10082E0809323
:105940002D05109224058091E1008E7F8093E10067
:105950008091E2008E7F8093E2008091E20080617E
:105960008093E20042E060E080E00E943604809193
:10597000F00088608093F000FF91EF91BF91AF91AC
:105980009F918F917F916F915F914F913F912F9157
:105990000F900FBE0F901F90189519BC10922D05F7
:1059A0001092FF0474CF8091E30087FD93E0909301
:1059B0002D05B5CF78941F921FB61F9211248F9397
:1059C0009F93AF93BF938091F6049091F704A091B9
:1059D000F804B091F9040196A11DB11D8093F6045D
:1059E0009093F704A093F804B093F904BF91AF919A
:1059F0009F918F911F901FBE1F9018951F921FB6E9
:105A00001F9211248F939F93AF93BF938091F504BE
:105A1000811113C08091F6049091F704A091F804CD
:105A2000B091F9044196A11DB11D8093F6049093A5
:105A3000F704A093F804B093F904BF91AF919F913C
:105A40008F911F901FBE1F901895CDB7DEB7C05520
:105A5000D1090FB6F894DEBF0FBECDBF85B7806801
:105A600085BF85B7806885BF84B7877F84BF0FB641
:105A7000F894A895809160008861809360001092EE
:105A800060000FBE80E890E00FB6F894809361004C
:105A9000909361000FBE8CEE98E090938901809303
:105AA00088010E941D070E941E100E94920F0E94F2
:105AB0001B0D0E9475030E9468048091E2008460BF
:105AC0008093E200789480912D058823A1F01091B5
:105AD000E9001F709091EC00892F817090FD80E8A3
